:020000040800F2
:1000000000500020297500087175000871750008FE
:100010007175000871750008717500080000000016
:100020000000000000000000000000000D5F00085C
:100030007175000800000000FD60000847610008BD
:1000400071750008717500087175000871750008F8
:1000500071750008717500087175000871750008E8
:1000600071750008717500087175000871750008D8
:1000700071750008717500087175000871750008C8
:1000800071750008717500087175000871750008B8
:1000900071750008717500087175000871750008A8
:1000A0007175000871750008717500087175000898
:1000B0007175000871750008717500087175000888
:1000C0007175000871750008717500087175000878
:1000D0007175000871750008717500087175000868
:1000E0007175000871750008717500080000000046
:1000F0000000000000000000000000000000000000
:0C01000000000000000000005FF808F1A3
:100110000348044B834202D0034B03B11847704796
:10012000680400206804002000000000054806491B
:100130000B1AD90F01EBA301491002D0034B03B1F5
:100140001847704768040020680400200000000081
:1001500010B5064C237843B9FFF7DAFF044B13B10F
:100160000448AFF300800123237010BD6804002011
:10017000000000008876000808B5044B1BB1044954
:100180000448AFF30080BDE80840CFE7000000005E
:100190006C04002088760008A3F5803A704700BF01
:1001A000154B002B08BF114B9D46FFF7F5FF0021B3
:1001B0008B460F461148124A121A07F0E3F80C4B0F
:1001C000002B00D098470B4B002B00D09847002005
:1001D000002104000D000B4807F00AF807F038F87A
:1001E0002000290006F022FF07F008F800000800B0
:1001F0000000000000000000000000006804002073
:10020000F01900201D720008A076000800000020F0
:100210006804002068040020F019002080B500AFB9
:10022000154B1B68144A43F001031360124B5A68C4
:100230001149124B13404B600F4B1B680E4A23F0C1
:10024000847323F4803313600B4B1B680A4A23F436
:1002500080231360084B5B68074A23F4FE03536056
:10026000054B4FF41F029A6000F07EF8044B4FF0EC
:1002700000629A6000BF80BD001002400000FFF8DD
:1002800000ED00E080B485B000AF0023FB600023E8
:10029000BB6000237B602F4B5B6803F00C03FB60AB
:1002A000FB68082B11D0FB68082B3AD8FB68002BA1
:1002B00003D0FB68042B04D033E0274B274A1A6095
:1002C00033E0254B254A1A602FE0224B5B6803F48C
:1002D0007013BB601F4B5B6803F480337B60BB68AB
:1002E0009B0C0233BB607B68002B06D1BB681C4AA9
:1002F00002FB03F3184A136017E0164B5B6803F424
:100300000033002B06D0BB68154A02FB03F3124AE8
:1003100013600AE0BB68114A02FB03F30E4A136044
:1003200003E00D4B0D4A1A6000BF0A4B5B681B09C6
:1003300003F00F030B4AD35CDBB2FB60064B1A6879
:10034000FB6822FA03F3044A136000BF1437BD466A
:1003500080BC7047001002400400002000127A00A8
:1003600000093D000800002080B500AF00F002F851
:1003700000BF80BD80B483B000AF00237B6000234A
:100380003B603A4B1B68394A43F480331360374B68
:100390001B6803F400333B607B6801337B603B6880
:1003A000002B03D17B68B3F5A06FF0D12F4B1B68F6
:1003B00003F40033002B02D001233B6001E0002353
:1003C0003B603B68012B4BD1294B1B68284A43F00B
:1003D00010031360264B1B68254A23F003031360A8
:1003E000234B1B68224A43F0020313601F4B1F4A32
:1003F0005B6853601D4B1D4A5B6853601B4B5B6819
:100400001A4A43F480635360184B5B68174A23F41D
:100410007C135360154B5B68144A43F4E813536034
:10042000124B1B68114A43F08073136000BF0F4BDF
:100430001B6803F00073002BF9D00C4B5B680B4A70
:1004400023F003035360094B5B68084A43F002033F
:10045000536000BF054B5B6803F00C03082BF9D118
:1004600000BF0C37BD4680BC704700BF0010024083
:100470000020024080B582B000AF78607B682F4AD0
:10048000934208D10121042000F0F0FD0021042056
:1004900000F0ECFD4EE07B68294A934208D101212F
:1004A000082000F0E3FD0021082000F0DFFD41E01E
:1004B0007B68244A934208D10121102000F0D6FD28
:1004C0000021102000F0D2FD34E07B681E4A9342E8
:1004D00008D10121202000F0C9FD0021202000F0DA
:1004E000C5FD27E07B68194A934208D101214020CD
:1004F00000F0BCFD0021402000F0B8FD1AE07B6850
:10050000134A934208D10121802000F0AFFD002161
:10051000802000F0ABFD0DE07B680E4A934209D1CC
:1005200001214FF4807000F0A1FD00214FF4807094
:1005300000F09CFD00BF0837BD4680BD00080140AB
:10054000000C01400010014000140140001801405F
:10055000001C01400020014080B500AF01210120B6
:1005600000F084FD0021012000F080FD00BF80BD6F
:1005700080B489B000AF786039600023FB6100234C
:100580003B610023BB610023FB6000237B610023F0
:10059000BB603B68DB7803F00F03FB613B68DB78F3
:1005A00003F01003002B05D03B689B781A46FB69CB
:1005B0001343FB613B681B88DBB2002B44D07B6894
:1005C0001B687B610023BB6138E00122BB6902FA32
:1005D00003F3FB603B681B881A46FB6813403B61D2
:1005E0003A69FB689A4226D1BB699B00FB600F22E7
:1005F000FB6802FA03F3BB60BB68DB437A69134014
:100600007B61FA69FB6802FA03F37A6913437B6141
:100610003B68DB78282B05D10122BB699A407B68B7
:100620005A6108E03B68DB78482B04D10122BB69A2
:100630009A407B681A61BB690133BB61BB69072BB8
:10064000C3D97B687A691A603B681B88FF2B46D93F
:100650007B685B687B610023BB613AE0BB69083360
:10066000012202FA03F3FB603B681B881A46FB6811
:1006700013403B613A69FB689A4227D1BB699B00F2
:10068000FB600F22FB6802FA03F3BB60BB68DB432D
:100690007A6913407B61FA69FB6802FA03F37A69AD
:1006A00013437B613B68DB78282B05D1BB6908339A
:1006B00001229A407B685A613B68DB78482B05D160
:1006C000BB69083301229A407B681A61BB69013318
:1006D000BB61BB69072BC1D97B687A695A6000BFCF
:1006E0002437BD4680BC704780B483B000AF7860CB
:1006F0007B684FF6FF721A807B6802229A707B68D3
:100700000422DA7000BF0C37BD4680BC704780B44D
:1007100085B000AF78600B467B800023FB737B685D
:100720009A687B881340002B02D00123FB7301E001
:100730000023FB73FB7B18461437BD4680BC704713
:1007400080B483B000AF78607B689B689BB218462A
:100750000C37BD4680BC704780B485B000AF786070
:100760000B467B800023FB737B68DA687B88134031
:10077000002B02D00123FB7301E00023FB73FB7B02
:1007800018461437BD4680BC704780B483B000AFB4
:1007900078607B68DB689BB218460C37BD4680BC2E
:1007A000704780B483B000AF78600B467B807A8856
:1007B0007B681A6100BF0C37BD4680BC704780B4AF
:1007C00083B000AF78600B467B807A887B685A6183
:1007D00000BF0C37BD4680BC704780B483B000AF0B
:1007E00078600B467B8013467B707B78002B03D0B0
:1007F0007A887B681A6102E07A887B685A6100BF58
:100800000C37BD4680BC704780B483B000AF7860C1
:100810000B467B807A887B68DA6000BF0C37BD4668
:1008200080BC704780B485B000AF78600B467B8099
:100830004FF48033FB607B88FA681343FB607B686E
:10084000FA689A617A887B689A617B68FA689A612B
:100850007B689B69FB607B689B69FB6000BF14370A
:10086000BD4680BC704780B485B000AF03460A46E1
:10087000FB711346BB710023FB600C4B1B68FB60D4
:10088000FA684FF680731340FB60FB791B01FA682E
:100890001343FB60BB79FA681343FB60034AFB68B0
:1008A000136000BF1437BD4680BC70470000014094
:1008B00080B483B000AF0346FB71044AFB79136038
:1008C00000BF0C37BD4680BC704700BF1C002042F3
:1008D00080B487B000AF78600B46FB7000233B61AB
:1008E0000023FB6000237B610023BB607B68002B3F
:1008F00003DA2E4BDB697B6102E02C4B5B687B618A
:100900007B681B0C03F00F03BB607B689BB23B61F1
:100910007B6803F44013B3F5401F0AD17B6923F0D1
:1009200070637B61214B5B68204A23F070635360E6
:1009300021E07B6803F48013002B0ED00322BB68F8
:1009400002FA03F3FB60FB68DB437A6913407B61C7
:100950007B6943F070637B610DE07B685B0D1B017D
:100960003A6902FA03F3DB437A6913407B617B69DE
:1009700043F070637B61FB78002B08D07B685B0DD4
:100980001B013A6902FA03F37A6913437B617B68BE
:10099000002B03DA054A7B69D36102E0034A7B69D5
:1009A000536000BF1C37BD4680BC7047000001404B
:1009B00080B485B000AF03460A46FB711346BB7195
:1009C0000023FB60BB7903F003039B000F2202FAB4
:1009D00003F3FB60154ABB799B08DBB2023352F884
:1009E0002320FB68DB431148B9798908C9B21A4052
:1009F0008B1C40F823200D4ABB799B08DBB20233E5
:100A000052F82320F979BB7903F003039B0001FA24
:100A100003F30648B9798908C9B21A438B1C40F818
:100A2000232000BF1437BD4680BC70470000014042
:100A300080B483B000AF7860034A7B68136000BF66
:100A40000C37BD4680BC7047DC00204280B400AF4C
:100A5000134B1B68124A43F001031360104B5A6892
:100A60000F49104B13404B600D4B1B680C4A23F091
:100A7000847323F480331360094B1B68084A23F402
:100A800080231360064B5B68054A23F4FE03536022
:100A9000034B4FF41F029A6000BFBD4680BC7047F5
:100AA000001002400000FFF880B483B000AF78600F
:100AB000134B1B68124A23F480331360104B1B68DE
:100AC0000F4A23F4802313607B68B3F5803F04D082
:100AD0007B68B3F5802F07D00DE0094B1B68084AEF
:100AE00043F48033136006E0054B1B68044A43F46B
:100AF000A023136000BF00BF0C37BD4680BC704709
:100B00000010024080B582B000AF00233B6000239C
:100B1000FB710023BB71312000F014FB0346BB7155
:100B20003B6801333B603B68B3F5A06F02D0BB79F3
:100B3000002BF0D0312000F005FB0346002B02D043
:100B40000123FB7101E00023FB71FB791846083794
:100B5000BD4680BD80B485B000AF0346FB71002365
:100B6000FB600A4B1B68FB60FB6823F0F803FB602B
:100B7000FB79DB00FA681343FB60044AFB681360EF
:100B800000BF1437BD4680BC704700BF0010024054
:100B900080B483B000AF0346FB71044AFB79136055
:100BA00000BF0C37BD4680BC704700BF000042420A
:100BB00080B485B000AF786039600023FB600A4BD9
:100BC0005B68FB60FB6823F47C13FB607A683B681E
:100BD0001343FA681343FB60034AFB68536000BF8A
:100BE0001437BD4680BC70470010024080B483B00B
:100BF00000AF0346FB71044AFB79136000BF0C375A
:100C0000BD4680BC704700BF6000424280B485B0E2
:100C100000AF78600023FB60094B5B68FB60FB68FA
:100C200023F00303FB60FA687B681343FB60044A0C
:100C3000FB68536000BF1437BD4680BC704700BFDF
:100C40000010024080B400AF044B5B68DBB203F0DD
:100C50000C03DBB21846BD4680BC70470010024052
:100C600080B485B000AF78600023FB60094B5B68FF
:100C7000FB60FB6823F0F003FB60FA687B681343BA
:100C8000FB60044AFB68536000BF1437BD4680BC5C
:100C9000704700BF0010024080B485B000AF78609C
:100CA0000023FB60094B5B68FB60FB6823F4E06397
:100CB000FB60FA687B681343FB60044AFB6853607F
:100CC00000BF1437BD4680BC704700BF0010024013
:100CD00080B485B000AF78600023FB60094B5B688F
:100CE000FB60FB6823F46053FB607B68DB00FA6801
:100CF0001343FB60034AFB68536000BF1437BD46D3
:100D000080BC70470010024080B483B000AF03463F
:100D10000A46FB711346BB71BB79002B08D00C4B04
:100D20001B78DAB20A49FB791343DBB20B7009E096
:100D3000074B1B78DAB2FB79DB43DBB20449134083
:100D4000DBB20B7000BF0C37BD4680BC704700BFE4
:100D50000910024080B483B000AF7860034A7B681A
:100D6000136000BF0C37BD4680BC7047D8004242BC
:100D700080B485B000AF78600023FB60094B5B68EE
:100D8000FB60FB6823F44043FB60FA687B68134315
:100D9000FB60044AFB68536000BF1437BD4680BC4B
:100DA000704700BF0010024080B483B000AF03461C
:100DB000FB710C4B00221A700A4B00221A70FB794F
:100DC000012B02D0042B04D007E0064B01221A703D
:100DD00003E0044B05221A7000BF00BF0C37BD466C
:100DE00080BC70472010024080B483B000AF03463F
:100DF000FB71044AFB79136000BF0C37BD4680BC11
:100E0000704700BF8004424280B483B000AF786076
:100E1000054B1A6A04497B6813430B6200BF0C3709
:100E2000BD4680BC704700BF0010024080B483B054
:100E300000AF0346FB71044AFB79136000BF0C3717
:100E4000BD4680BC704700BF3C04424280B487B0BE
:100E500000AF786000237B6100233B610023FB60CF
:100E60000023BB604F4B5B6803F00C037B617B6925
:100E7000082B11D07B69082B3AD87B69002B03D053
:100E80007B69042B04D033E07B68474A1A6033E067
:100E90007B68454A1A602FE0424B5B6803F470138D
:100EA0003B61404B5B6803F48033FB603B699B0C08
:100EB00002333B61FB68002B06D13B693B4A02FBD6
:100EC00003F27B681A6017E0364B5B6803F400336B
:100ED000002B06D03B69354A02FB03F27B681A609F
:100EE0000AE03B69304A02FB03F27B681A6003E0C8
:100EF0007B682D4A1A6000BF2A4B5B6803F0F00341
:100F00007B617B691B097B61294A7B6913441B78E0
:100F1000DBB2BB607B681A68BB68DA407B685A60EA
:100F2000204B5B6803F4E0637B617B691B0A7B6198
:100F30001F4A7B6913441B78DBB2BB607B685A682D
:100F4000BB68DA407B689A60164B5B6803F46053B9
:100F50007B617B69DB0A7B61154A7B6913441B78E3
:100F6000DBB2BB607B685A68BB68DA407B68DA60DA
:100F70000C4B5B6803F440437B617B699B0B7B619B
:100F80000C4A7B6913441B78DBB2BB607B68DA6870
:100F9000BB68B2FBF3F27B681A6100BF1C37BD4629
:100FA00080BC70470010024000127A0000093D002A
:100FB000180000202800002080B483B000AF7860C3
:100FC0000B46FB70FB78002B06D0094B5A69084989
:100FD0007B6813434B6106E0054B5A697B68DB4332
:100FE000034913404B6100BF0C37BD4680BC7047BE
:100FF0000010024080B483B000AF78600B46FB70F5
:10100000FB78002B06D0094B9A6908497B6813438B
:101010008B6106E0054B9A697B68DB43034913400B
:101020008B6100BF0C37BD4680BC7047001002408A
:1010300080B483B000AF78600B46FB70FB78002B68
:1010400006D0094BDA6908497B681343CB6106E097
:10105000054BDA697B68DB4303491340CB6100BF72
:101060000C37BD4680BC70470010024080B483B08E
:1010700000AF78600B46FB70FB78002B06D0094B65
:10108000DA6808497B681343CB6006E0054BDA68F1
:101090007B68DB4303491340CB6000BF0C37BD4680
:1010A00080BC70470010024080B483B000AF78600D
:1010B0000B46FB70FB78002B06D0094B1A690849D8
:1010C0007B6813430B6106E0054B1A697B68DB43C1
:1010D000034913400B6100BF0C37BD4680BC70470D
:1010E0000010024080B483B000AF0346FB71044A95
:1010F000FB79136000BF0C37BD4680BC704700BF52
:101100004004424280B483B000AF0346FB71044AFE
:10111000FB79136000BF0C37BD4680BC704700BF31
:101120004C00424280B483B000AF0346FB71044AD6
:10113000FB79137000BF0C37BD4680BC704700BF01
:101140000710024080B487B000AF0346FB71002354
:10115000FB6000237B610023FB74FB795B09DBB23E
:10116000FB60FB68012B03D1124B1B687B6109E01C
:10117000FB68022B03D10F4B1B6A7B6102E00D4B16
:101180005B6A7B61FB7903F01F03FB607A69FB6894
:1011900022FA03F303F00103002B02D00123FB74B6
:1011A00001E00023FB74FB7C18461C37BD4680BC65
:1011B000704700BF0010024080B400AF044B5B6A70
:1011C000034A43F08073536200BFBD4680BC704742
:1011D0000010024080B485B000AF0346FB710023CD
:1011E000FB73084B9A68FB791340002B02D0012354
:1011F000FB7301E00023FB73FB7B18461437BD46ED
:1012000080BC70470010024080B483B000AF03463A
:10121000FB71044AFB79137000BF0C37BD4680BCDC
:10122000704700BF0A10024080B582B000AF7860FE
:101230007B68264A93420AD101214FF48040FFF790
:1012400015FF00214FF48040FFF710FF3AE07B6864
:101250001F4A93420AD101214FF40030FFF724FFC7
:1012600000214FF40030FFF71FFF2BE07B68194A85
:1012700093420AD101214FF48020FFF715FF00218E
:101280004FF48020FFF710FF1CE07B68124A934266
:101290000AD101214FF40020FFF706FF00214FF48F
:1012A0000020FFF701FF0DE07B680C4A934209D153
:1012B00001214FF48010FFF7F7FE00214FF480105A
:1012C000FFF7F2FE00BF0837BD4680BD0038014081
:1012D0000044004000480040004C004000500040E6
:1012E00080B58CB000AF786039600023FB620023CA
:1012F000BB6200237B6200233B620023FB617B68AF
:10130000FB617B681B8A9BB2FB62FA6A4CF6FF7337
:101310001340FB623B68DB881A46FB6A1343FB629F
:10132000FB6A9AB27B681A827B689B899BB2FB62DC
:10133000FA6A4EF6F3131340FB623B689A883B68E7
:101340001B8913439AB23B685B8913439BB21A46CD
:10135000FB6A1343FB62FB6A9AB27B689A817B68E3
:101360009B8A9BB2FB62FA6A4FF6FF431340FB6213
:101370003B689B891A46FB6A1343FB62FB6A9AB27D
:101380007B689A8207F108031846FFF75FFDFB6947
:101390002E4A934202D17B69BB6201E03B69BB628A
:1013A0007B689B899BB21BB2002B0CDABA6A13468E
:1013B0009B0013449A001A443B681B685B00B2FB15
:1013C000F3F37B620BE0BA6A13469B0013449A0066
:1013D0001A443B681B689B00B2FBF3F37B627B6A99
:1013E0001B4AA2FB03235B091B01FB62FB6A1B096F
:1013F000642202FB03F37A6AD31A3B627B689B89FF
:101400009BB21BB2002B0CDA3B6ADB003233104A72
:10141000A2FB03235B0903F00703FA6A1343FB6291
:101420000BE03B6A1B013233094AA2FB03235B0931
:1014300003F00F03FA6A1343FB62FB6A9AB27B68FC
:101440001A8100BF3037BD4680BD00BF0038014063
:101450001F85EB5180B483B000AF78607B684FF498
:1014600016521A607B6800229A807B680022DA801C
:101470007B6800221A817B680C225A817B680022DB
:101480009A8100BF0C37BD4680BC704780B485B0E0
:1014900000AF786039600023FB607B681B8A9BB2D9
:1014A000FB60FA684FF2FF031340FB603B681A8849
:1014B0003B685B8813439AB23B689B8813439AB29C
:1014C0003B68DB8813439BB21A46FB681343FB60FF
:1014D000FB689AB27B681A8200BF1437BD4680BC95
:1014E000704780B483B000AF78607B6800221A80B8
:1014F0007B6800225A807B6800229A807B680022E9
:10150000DA8000BF0C37BD4680BC704780B483B022
:1015100000AF78600B46FB70FB78002B08D07B682F
:101520009B899BB243F400539AB27B689A8107E08F
:101530007B689B899BB223F400539AB27B689A81A3
:1015400000BF0C37BD4680BC704780B487B000AF89
:1015500078600B467B8013467B7000233B61002341
:10156000FB600023BB6000237B617B687B617B8821
:10157000DBB25B09DBB23B617B8803F01F03FB60DE
:101580000122FB6802FA03F3BB603B69012B03D124
:101590007B690C337B6109E03B69022B03D17B69DA
:1015A00010337B6102E07B6914337B617B78002B15
:1015B00006D07B6919687B69BA680A431A6006E03D
:1015C0007B691968BB68DA437B690A401A6000BF0F
:1015D0001C37BD4680BC704780B483B000AF7860D4
:1015E0000B467B8013467B707B78002B08D07B6892
:1015F0009B8A9AB27B8813439AB27B689A8209E0ED
:101600007B689B8A9AB27B88DB439BB213409AB279
:101610007B689A8200BF0C37BD4680BC704780B49F
:1016200083B000AF78600B46FB707B681B8A9BB26F
:1016300023F00F039AB27B681A827B681B8A9AB2E6
:10164000FB789BB213439AB27B681A8200BF0C37B7
:10165000BD4680BC704780B483B000AF78600B4655
:101660007B807B689B899BB223F400639AB27B6882
:101670009A817B689B899AB27B8813439AB27B6874
:101680009A8100BF0C37BD4680BC704780B483B0E0
:1016900000AF78600B46FB70FB78002B08D07B68AE
:1016A0009B899BB243F002039AB27B689A8107E060
:1016B0007B689B899BB223F002039AB27B689A8174
:1016C00000BF0C37BD4680BC704780B483B000AF0C
:1016D00078600B467B807B681B8A9BB223F02003DB
:1016E0009AB27B681A827B681B8A9AB27B88134302
:1016F0009AB27B681A8200BF0C37BD4680BC704727
:1017000080B483B000AF78600B46FB70FB78002B91
:1017100008D07B681B8A9BB243F480439AB27B68F3
:101720001A8207E07B681B8A9BB223F480439AB23B
:101730007B681A8200BF0C37BD4680BC704780B4FE
:1017400083B000AF78600B467B807B88C3F30803CF
:101750009AB27B689A8000BF0C37BD4680BC704748
:1017600080B483B000AF78607B689B889BB2C3F382
:1017700008039BB218460C37BD4680BC704780B446
:1017800083B000AF78607B689B899BB243F0010314
:101790009AB27B689A8100BF0C37BD4680BC704707
:1017A00080B483B000AF78600B46FB707B681B8B06
:1017B0009BB2DBB29AB27B681A837B681B8B9AB2AE
:1017C000FB789BB21B029BB213439AB27B681A83CD
:1017D00000BF0C37BD4680BC704780B483B000AFFB
:1017E00078600B46FB707B681B8B9BB223F0FF037A
:1017F0009AB27B681A837B681B8B9AB2FB789BB288
:1018000013439AB27B681A8300BF0C37BD4680BC75
:10181000704780B483B000AF78600B46FB70FB78F4
:10182000002B08D07B689B8A9BB243F020039AB2BE
:101830007B689A8207E07B689B8A9BB223F0200337
:101840009AB27B689A8200BF0C37BD4680BC704755
:1018500080B483B000AF78600B46FB70FB78002B40
:1018600008D07B689B8A9BB243F010039AB27B68D6
:101870009A8207E07B689B8A9BB223F010039AB29E
:101880007B689A8200BF0C37BD4680BC704780B42D
:1018900083B000AF78600B46FB70FB78002B08D05C
:1018A0007B689B8A9BB243F008039AB27B689A825A
:1018B00007E07B689B8A9BB223F008039AB27B689F
:1018C0009A8200BF0C37BD4680BC704780B483B09D
:1018D00000AF78600B46FB70FB78002B0AD07B686A
:1018E0009B899BB26FEA43436FEA53439AB27B688A
:1018F0009A8107E07B689B899BB2C3F30E039AB27F
:101900007B689A8100BF0C37BD4680BC704780B4AD
:1019100083B000AF78600B46FB70FB78002B08D0DB
:101920007B689B8A9BB243F400639AB27B689A827D
:1019300007E07B689B8A9BB223F400639AB27B68C2
:101940009A8200BF0C37BD4680BC704780B483B01C
:1019500000AF78600B467B807B689B8A9BB223F04C
:1019600004039AB27B689A827B689B8A9AB27B88CE
:1019700013439AB27B689A8200BF0C37BD4680BC85
:10198000704780B483B000AF78600B46FB70FB7883
:10199000002B08D07B689B8A9BB243F002039AB26B
:1019A0007B689A8207E07B689B8A9BB223F00203E4
:1019B0009AB27B689A8200BF0C37BD4680BC7047E4
:1019C00080B485B000AF78600B467B800023FB734A
:1019D0007B681B889AB27B8813409BB2002B02D095
:1019E0000123FB7301E00023FB73FB7B18461437D4
:1019F000BD4680BC704780B483B000AF78600B46B2
:101A00007B807B88DB439AB27B681A8000BF0C37EF
:101A1000BD4680BC704780B487B000AF78600B468D
:101A20007B800023FB6000237B610023BB600023DD
:101A3000FB747B88DBB25B09DBB2BB607B8803F0A5
:101A40001F037B6101227B6902FA03F37B61BB68A0
:101A5000012B07D17B689B899BB21A467B69134097
:101A60007B6111E0BB68022B07D17B681B8A9BB2AC
:101A70001A467B6913407B6106E07B689B8A9BB2B8
:101A80001A467B6913407B617B881B0A9BB2FB6013
:101A90000122FB6802FA03F3FB607B681B889BB2A0
:101AA0001A46FB681340FB607B69002B05D0FB687E
:101AB000002B02D00123FB7401E00023FB74FB7CAC
:101AC00018461C37BD4680BC704780B485B000AF57
:101AD00078600B467B800023FB810023BB817B88E1
:101AE0001B0AFB81FB89012202FA03F3BB81BB893C
:101AF000DB439AB27B681A8000BF1437BD4680BCB6
:101B0000704700BF80B58CB004AFF860B9603B602F
:101B10001346FB80FB889B00184604F093FB78611A
:101B20007B69002B13D05C2004F08CFBF861FB690F
:101B3000002B08D05C220021F86905F023FCFB692A
:101B40007A691A6305E0786904F038FC01E0002343
:101B5000FB61FB69002B13D0FA8800230393FB6918
:101B60000293FB6A0193BB6A00933B68B968F8680B
:101B700000F00EF8F86900F09BF80123BB6102E069
:101B80004FF0FF33BB61BB6918462037BD4680BDAF
:101B900080B588B000AFF860B9607A603B603B6B9D
:101BA000186B7B689B001A46A52105F0EBFB3B6B8D
:101BB0001A6B7B6803F18043013B9B001344BB61BC
:101BC000BB6923F00703BB61BB6903F00703002B6C
:101BD0000BD04FF0A00383F31188BFF36F8FBFF3D7
:101BE0004F8F7B6100BF00BFFDE7BB68002B1ED09D
:101BF0000023FB6112E0BA68FB69134419783A6B61
:101C0000FB69134434330A461A70BA68FB691344FB
:101C10001B78002B06D0FB690133FB61FB690F2B9E
:101C2000E9D900E000BF3B6B002283F84320BB6A88
:101C3000042B0BD94FF0A00383F31188BFF36F8FF0
:101C4000BFF34F8F3B6100BF00BFFDE7BB6A042BB2
:101C500001D90423BB623B6BBA6ADA623B6BBA6A96
:101C6000DA643B6B0433184604F06DF83B6B1833B1
:101C7000184604F068F83B6B3A6B1A61BB6AC3F113
:101C800005023B6B9A613B6B3A6B5A623A68F968A2
:101C9000B86904F0EDF802463B6B1A60FB6A002B52
:101CA00002D0FB6A3A6B1A6000BF2037BD4680BD88
:101CB00080B584B000AF786004F0C6F9404B1B6873
:101CC00001333F4A13603F4B1B68002B09D13D4A4B
:101CD0007B6813603A4B1B68012B10D101F094FC18
:101CE0000DE0394B1B68002B09D1364B1B68DA6AB3
:101CF0007B68DB6A9A4202D8324A7B681360334BB6
:101D00001B680133314A1360304B1A687B685A6490
:101D10007B68DB6A01229A402D4B1B6813432C4AD7
:101D200013607B68DA6A2B4913469B0013449B00BF
:101D30000B4404331B68FB607B68FA689A60FB689D
:101D40009A687B68DA60FB689B687A6804325A603C
:101D50007B681A1DFB689A607B68DA6A13469B00F1
:101D600013449B001B4A1A447B685A617B68DA6AF9
:101D7000184913469B0013449B000B441B68591CD5
:101D8000144813469B0013449B000344196004F05D
:101D90008BF90D4B1B68002B0ED00A4B1B68DA6ABF
:101DA0007B68DB6A9A4207D20B4B4FF080521A6075
:101DB000BFF34F8FBFF36F8F00BF1037BD4680BD9D
:101DC0005C050020840400206805002078050020C0
:101DD000640500208804002004ED00E080B584B094
:101DE00000AF786004F030F97B68002B02D13C4BE7
:101DF0001B6800E07B68FB60FB680433184604F056
:101E000009F80346002B15D1FB68DA6A35491346F9
:101E10009B0013449B000B441B68002B0AD1FB68FA
:101E2000DB6A012202FA03F3DA432F4B1B681340EB
:101E30002D4A1360FB689B6A002B04D0FB681833A3
:101E4000184603F0E7FF294B1B680133274A13604C
:101E5000234B1B68FA689A420BD1FB68043319467E
:101E6000234803F07CFF234B1B680133214A136096
:101E700006E0214B1B68013B1F4A136001F015FD72
:101E800004F012F9164B1B68FA689A4202D0F868FF
:101E900001F0FBFC194B1B68002B1CD0104B1B687E
:101EA000FA689A4217D1164B1B68002B0BD04FF0E3
:101EB000A00383F31188BFF36F8FBFF34F8FBB6015
:101EC00000BF00BFFDE70F4B4FF080521A60BFF319
:101ED0004F8FBFF36F8F00BF1037BD4680BD00BF6F
:101EE0008404002088040020640500207805002078
:101EF00030050020440500205C0500206805002016
:101F00008405002004ED00E080B58AB000AF786061
:101F1000396000237B627B68002B0BD14FF0A0035C
:101F200083F31188BFF36F8FBFF34F8F7B6100BFC7
:101F300000BFFDE73B68002B0BD14FF0A00383F3FC
:101F40001188BFF36F8FBFF34F8F3B6100BF00BF9E
:101F5000FDE72B4B1B68002B0BD04FF0A00383F346
:101F60001188BFF36F8FBFF34F8FFB6000BF00BFBF
:101F7000FDE700F077FC234B1B683B627B681B6826
:101F80003A681344FB617B681B683A6A9A420BD239
:101F90007B681B68FA699A4211D2FA693B6A9A42D5
:101FA0000DD901237B620AE07B681B68FA699A42BB
:101FB00003D3FA693B6A9A4201D901237B627B68A9
:101FC000FA691A607B6A002B06D0FA693B6AD31A59
:101FD0000021184602F0D4FB00F052FCB861BB6946
:101FE000002B07D1084B4FF080521A60BFF34F8F80
:101FF000BFF36F8F7B6A18462837BD4680BD00BF90
:10200000840500206005002004ED00E080B584B068
:1020100000AF78600023FB607B68002B18D0144B66
:102020001B68002B0BD04FF0A00383F31188BFF384
:102030006F8FBFF34F8FBB6000BF00BFFDE700F0A5
:1020400011FC0021786802F09BFB00F019FCF8609D
:10205000FB68002B07D1074B4FF080521A60BFF38B
:102060004F8FBFF36F8F00BF1037BD4680BD00BFDD
:102070008405002004ED00E080B58AB000AF7860F0
:102080007B68FB61FB69002B0BD14FF0A00383F34E
:102090001188BFF36F8FBFF34F8FFB6000BF00BF8E
:1020A000FDE72D4B1B68FA699A4203D1002387F89C
:1020B00027304BE003F0C8FFFB695B69BB61274B2E
:1020C0001B687B61264B1B683B6103F0EDFFBA691F
:1020D0007B699A4203D0BA693B699A4203D10223D1
:1020E00087F8273032E0BB691E4A934220D1FB6952
:1020F0009B6A002B18D1032387F8273000233B620B
:102100000EE0FA693B6A134458331B78DBB2012BAB
:1021100003D1022387F8273018E03B6A01333B6282
:102120003B6A002BEDDD11E0022387F827300DE03C
:10213000BB690D4A934202D0BB69002B03D1042333
:1021400087F8273002E0012387F8273097F82730F7
:1021500018462837BD4680BD8404002014050020A1
:1021600018050020480500203005002080B584B007
:1021700000AF786003F068FF7B68002B02D1074B4B
:102180001B6800E07B68FB60FB68DB6ABB6003F0F8
:102190008BFFBB6818461037BD4680BD8404002005
:1021A00080B588B000AF786004F00AF8EFF31182D0
:1021B0004FF0A00383F31188BFF36F8FBFF34F8FEE
:1021C0003A61FB603B69FB617B68002B02D1094BE4
:1021D0001B6800E07B68BB61BB69DB6A7B61FB69F4
:1021E000BB60BB6883F3118800BF7B69184620374A
:1021F000BD4680BD8404002080B588B000AF786003
:1022000039600023FB613B68042B0BD94FF0A0031E
:1022100083F31188BFF36F8FBFF34F8FBB6000BF95
:1022200000BFFDE73B68042B01D904233B6003F0AA
:102230000BFF7B68002B02D1554B1B6800E07B68CD
:10224000BB61BB69DB6C7B617A693B689A4200F0D9
:1022500098803A687B699A420DD94D4B1B68BA69E0
:102260009A420FD04A4B1B68DB6A3A689A4209D3FC
:102270000123FB6106E0464B1B68BA699A4201D113
:102280000123FB61BB69DB6A3B61BB69DA6CBB693B
:10229000DB6A9A4202D1BB693A68DA62BB693A6882
:1022A000DA64BB699B69002B04DB3B68C3F1050260
:1022B000BB699A61BB6959693A6913469B0013442B
:1022C0009B00344A1344994250D1BB6904331846E9
:1022D00003F0A0FD0346002B09D101223B6902FA5D
:1022E00003F3DA432C4B1B6813402B4A1360BB6982
:1022F000DB6A01229A40284B1B681343264A13606D
:10230000BB69DA6A234913469B0013449B000B44C4
:1023100004331B68FB60BB69FA689A60FB689A68C3
:10232000BB69DA60FB689B68BA6904325A60BB69B2
:102330001A1DFB689A60BB69DA6A13469B00134456
:102340009B00144A1A44BB695A61BB69DA6A114995
:1023500013469B0013449B000B441B68591C0D48FB
:1023600013469B0013449B0003441960FB69002B38
:1023700007D00A4B4FF080521A60BFF34F8FBFF364
:102380006F8F03F091FE00BF2037BD4680BD00BFB8
:1023900084040020880400206405002004ED00E08F
:1023A00080B586B000AF786003F04EFE7B68002BEE
:1023B00002D1434B1B6800E07B683B613B690433FF
:1023C000184603F027FD0346002B15D13B69DA6A56
:1023D0003C4913469B0013449B000B441B68002B95
:1023E0000AD13B69DB6A012202FA03F3DA43364B76
:1023F0001B681340344A13603B699B6A002B04D06E
:102400003B691833184603F005FD3B690433194650
:102410002E4803F0A4FC00237B6110E03A697B693D
:10242000134458331B78DBB2012B05D13A697B6921
:102430001344583300221A707B6901337B617B6936
:10244000002BEBDD03F030FE214B1B68002B05D089
:1024500003F0FAFD01F029FA03F026FE184B1B6881
:102460003A699A4228D11A4B1B68002B18D0194B95
:102470001B68002B0BD04FF0A00383F31188BFF330
:102480006F8FBFF34F8FFB6000BF00BFFDE7124BA4
:102490004FF080521A60BFF34F8FBFF36F8F0BE086
:1024A0000A4B1A680D4B1B689A4203D1044B002259
:1024B0001A6001E000F000FD00BF1837BD4680BD86
:1024C00084040020880400206405002048050020C2
:1024D000680500208405002004ED00E05C05002074
:1024E00080B487B000AF786000237B617B683B617C
:1024F0007B68002B0BD14FF0A00383F31188BFF34F
:102500006F8FBFF34F8FFB6000BF00BFFDE73B69DC
:102510005B690A4A93420AD13B699B6A084A934223
:1025200005D03B699B6A002B01D101237B617B694C
:1025300018461C37BD4680BC704700BF48050020C8
:102540001C05002080B586B000AF78607B687B6199
:102550007B68002B0BD14FF0A00383F31188BFF3EE
:102560006F8FBFF34F8FFB6000BF00BFFDE7344BA1
:102570001B687A699A425FD07B69002B5CD003F0BC
:1025800063FD7869FFF7ACFF0346002B52D07B69EF
:102590000433184603F03EFC7B69DB6A01229A4053
:1025A000284B1B681343274A13607B69DA6A264964
:1025B00013469B0013449B000B4404331B683B6190
:1025C0007B693A699A603B699A687B69DA603B6922
:1025D0009B687A6904325A607B691A1D3B699A606C
:1025E0007B69DA6A13469B0013449B00164A1A441F
:1025F0007B695A617B69DA6A134913469B0013446D
:102600009B000B441B68591C0F4813469B00134446
:102610009B00034419607B69DA6A094B1B68DB6A1B
:102620009A4207D3094B4FF080521A60BFF34F8F85
:10263000BFF36F8F03F038FD00BF1837BD4680BD74
:1026400084040020640500208804002004ED00E0DC
:1026500080B58AB000AF786000237B627B683B6204
:102660007B68002B0BD14FF0A00383F31188BFF3DD
:102670006F8FBFF34F8F7B6100BF00BFFDE703F09B
:102680009FFDEFF311824FF0A00383F31188BFF396
:102690006F8FBFF34F8F3A61FB603B69FB61386A14
:1026A000FFF71EFF0346002B5AD0334B1B68002B4D
:1026B00050D13B6ADA6A314B1B68DB6A9A4204D319
:1026C00001237B622E4B01221A603B6A04331846B9
:1026D00003F0A0FB3B6ADB6A01229A40294B1B688E
:1026E0001343284A13603B6ADA6A274913469B0062
:1026F00013449B000B4404331B68BB613B6ABA69FB
:102700009A60BB699A683B6ADA60BB699B683A6AFF
:1027100004325A603B6A1A1DBB699A603B6ADA6AE6
:1027200013469B0013449B00174A1A443B6A5A61A4
:102730003B6ADA6A144913469B0013449B000B441E
:102740001B68591C104813469B0013449B0003440C
:10275000196005E03B6A183319460C4803F0FFFA8C
:10276000FB69BB60BB6883F3118800BF7B6A1846B6
:102770002837BD4680BD00BF8405002084040020AA
:102780007005002064050020880400201C0500203E
:1027900080B586B002AF204B019300230093002345
:1027A00078221E491E48FFF7ADF9F860FB68012B3F
:1027B00002D103F0BDFFF860FB68012B16D14FF08A
:1027C000A00383F31188BFF36F8FBFF34F8FBB60FC
:1027D00000BF144B4FF0FF321A60134B01221A60F6
:1027E000124B00221A6003F0B4FB0FE0FB68B3F158
:1027F000FF3F0BD14FF0A00383F31188BFF36F8F1E
:10280000BFF34F8F7B6000BF00BFFDE7084B1B6825
:1028100000BF1037BD4680BD8005002088750008C8
:10282000DB3500087C0500206805002060050020DD
:102830002C00002080B582B000AF4FF0A00383F3DE
:102840001188BFF36F8FBFF34F8F7B6000BF044BC6
:1028500000221A6003F0DCFB00BF0837BD4680BDD4
:102860006805002080B400AF044B1B680133034AA5
:10287000136000BFBD4680BC704700BF84050020C8
:1028800080B588B000AF0023FB610023BB61714BB2
:102890001B68002B0BD14FF0A00383F31188BFF30B
:1028A0006F8FBFF34F8F7B6000BF00BFFDE703F06A
:1028B000CBFB684B1B68013B664A1360654B1B688A
:1028C000002B40F0C080644B1B68002B00F0BB80E5
:1028D0008AE0624BDB68DB68FB61FB699B6A3B61FA
:1028E000FB69DB69FA69126A9A60FB691B6AFA691B
:1028F000D2695A603B695A68FB6918339A4203D11E
:10290000FB691A6A3B695A60FB6900229A623B695B
:102910001B685A1E3B691A60FB695B69FB60FB69B7
:102920009B68FA69D2689A60FB69DB68FA69926809
:102930005A60FB685A68FB6904339A4203D1FB6909
:10294000DA68FB685A60FB6900225A61FB681B6801
:102950005A1EFB681A60FB69DB6A01229A40404BF1
:102960001B6813433E4A1360FB69DA6A3D4913460C
:102970009B0013449B000B4404331B68BB60FB6942
:10298000BA689A60BB689A68FB69DA60BB689B6842
:10299000FA6904325A60FB691A1DBB689A60FB69C8
:1029A000DA6A13469B0013449B002E4A1A44FB69C3
:1029B0005A61FB69DA6A2B4913469B0013449B005A
:1029C0000B441B68591C274813469B0013449B006B
:1029D00003441960FB69DA6A234B1B68DB6A9A427D
:1029E00002D3224B01221A601C4B1B68002B7FF480
:1029F00070AFFB69002B01D000F057FF1C4B1B6828
:102A00007B617B69002B10D000F03EF90346002B60
:102A100002D0164B01221A607B69013B7B617B6906
:102A2000002BF1D1124B00221A60104B1B68002BB7
:102A300009D00123BB610F4B4FF080521A60BFF3E6
:102A40004F8FBFF36F8F03F02FFBBB691846203702
:102A5000BD4680BD840500205C0500201C050020CB
:102A600064050020880400208404002070050020F4
:102A70006C05002004ED00E080B483B000AF044B8F
:102A80001B687B607B6818460C37BD4680BC70476E
:102A90006005002080B582B000AF03F091FB0023F9
:102AA0007B60044B1B683B603B6818460837BD469B
:102AB00080BD00BF6005002080B400AF024B1B68E2
:102AC0001846BD4680BC70475C05002080B485B0C8
:102AD00000AF78607B68002B02D10D4B1B6800E0D3
:102AE0007B68FB60FB68002B0BD14FF0A00383F3E6
:102AF0001188BFF36F8FBFF34F8FBB6000BF00BF64
:102B0000FDE7FB68343318461437BD4680BC704778
:102B10008404002080B586B000AFF860B9607A60A8
:102B200000237B6105233B61FFF79CFE3A4B1B684A
:102B3000BA689A4268D33B69013B3B617A691346A4
:102B4000DB0013449B001A46FB6898183A69134649
:102B50009B0013449B00314A13440122194600F0A4
:102B600027FE02467B6913447B613B69002BE2D15F
:102B70007A691346DB0013449B001A46FB68134432
:102B8000274A11680222184600F012FE02467B69AD
:102B900013447B617A691346DB0013449B001A4699
:102BA000FB6813441F4A11680222184600F000FE19
:102BB00002467B6913447B617A691346DB00134448
:102BC0009B001A46FB68134404221749184600F07C
:102BD000EFFD02467B6913447B617A691346DB0093
:102BE00013449B001A46FB68134403220F491846FE
:102BF00000F0DEFD02467B6913447B617B68002B9D
:102C000002D07B6800221A60FFF73AFE7B69184603
:102C10001837BD4680BD00BF5C0500208804002039
:102C2000140500201805002030050020480500206C
:102C300080B584B000AF7860114B1B68002B0BD0BF
:102C40004FF0A00383F31188BFF36F8FBFF34F8F53
:102C5000BB6000BF00BFFDE7FFF704FE03F0F4F91F
:102C6000084B1A687B681344064A136003F01CFA89
:102C7000FFF706FEF860FB6818461037BD4680BDBA
:102C8000840500206C05002080B58AB000AF0023C9
:102C90007B627E4B1B68002B40F0ED807C4B1B68F9
:102CA00001333B627A4A3B6A13603B6A002B21D1B5
:102CB000784B1B681B68002B0BD04FF0A00383F3ED
:102CC0001188BFF36F8FBFF34F8F7B6000BF00BFD2
:102CD000FDE7704B1B68FB616F4B1B686D4A13600F
:102CE0006D4AFB6913606D4B1B6801336B4A1360BF
:102CF00000F0DBFD6A4B1B683A6A9A42C0F0A6807E
:102D0000644B1B681B68002B04D1654B4FF0FF32EE
:102D10001A609BE05F4B1B68DB68DB68BB61BB69CB
:102D20005B687B613A6A7B699A4203D25C4A7B6941
:102D300013608BE0BB695B693B61BB699B68BA69E7
:102D4000D2689A60BB69DB68BA6992685A603B696D
:102D50005A68BB6904339A4203D1BB69DA683B699C
:102D60005A60BB6900225A613B691B685A1E3B6965
:102D70001A60BB699B6A002B1ED0BB699B6AFB6013
:102D8000BB69DB69BA69126A9A60BB691B6ABA6976
:102D9000D2695A60FB685A68BB6918339A4203D1FA
:102DA000BB691A6AFB685A60BB6900229A62FB68B9
:102DB0001B685A1EFB681A60BB69DB6A01229A40D5
:102DC000384B1B681343374A1360BB69DA6A3649CC
:102DD00013469B0013449B000B4404331B68BB60E9
:102DE000BB69BA689A60BB689A68BB69DA60BB68FD
:102DF0009B68BA6904325A60BB691A1DBB689A6045
:102E0000BB69DA6A13469B0013449B00264A1A44A6
:102E1000BB695A61BB69DA6A234913469B001344B4
:102E20009B000B441B68591C1F4813469B0013440E
:102E30009B0003441960BB69DA6A1C4B1B68DB6AA0
:102E40009A427FF65DAF01237B6259E7174B1B68FF
:102E5000DA6A154913469B0013449B000B441B6818
:102E6000012B01D901237B62114B1B68002B07D07A
:102E700001237B6204E00F4B1B6801330D4A136092
:102E80007B6A18462837BD4680BD00BF84050020F8
:102E9000600500201405002018050020740500209E
:102EA0007C050020640500208804002084040020A4
:102EB000700500206C05002080B487B000AF274B60
:102EC0001B68002B03D0264B01221A6040E0244BE4
:102ED00000221A60234B1B68FB60FB68B3FA83F384
:102EE000FB72FB7AC3F11F037B611F497A691346AA
:102EF0009B0013449B000B441B68002B0BD14FF02D
:102F0000A00383F31188BFF36F8FBFF34F8F7B60F4
:102F100000BF00BFFDE77A6913469B0013449B0086
:102F2000114A13443B613B695B685A683B695A60CC
:102F30003B695A683B6908339A4204D13B695B6834
:102F40005A683B695A603B695B68DB68074A1360F3
:102F500000BF1C37BD4680BC704700BF8405002001
:102F600070050020640500208804002084040020EF
:102F700080B584B000AF786039607B68002B0BD1DE
:102F80004FF0A00383F31188BFF36F8FBFF34F8F10
:102F9000FB6000BF00BFFDE7074B1B6818331946F5
:102FA000786802F0FFFE0121386801F0E9FB00BFFC
:102FB0001037BD4680BD00BF8404002080B588B0B6
:102FC00000AFF860B9607A60FB68002B0BD14FF05E
:102FD000A00383F31188BFF36F8FBFF34F8FBB61E3
:102FE00000BF00BFFDE71F4B1B68002B0BD14FF04C
:102FF000A00383F31188BFF36F8FBFF34F8F7B6103
:1030000000BF00BFFDE7184B1B68BA6842F00042E2
:103010009A61FB685B68FB61134B1B68FA69DA61B4
:10302000114B1B68FA6992681A620F4B1A68FB69A8
:103030009B6818325A600C4B1B6803F11802FB693D
:103040009A60094B1B68FA689A62FB681B685A1CF5
:10305000FB681A600121786801F092FB00BF2037FD
:10306000BD4680BD840500208404002080B586B064
:1030700000AFF860B9607A60FB68002B0BD14FF0AD
:10308000A00383F31188BFF36F8FBFF34F8F3B61B2
:1030900000BF00BFFDE7FB685B687B61154B1B68E9
:1030A0007A69DA61134B1B687A6992681A62114B6C
:1030B0001A687B699B6818325A600E4B1B6803F1D3
:1030C00018027B699A600B4B1B68FA689A62FB686E
:1030D0001B685A1CFB681A607B68002B02D04FF0FB
:1030E000FF33BB607968B86801F04AFB00BF18374E
:1030F000BD4680BD8404002080B48BB000AF7860F2
:103100007B68DB68DB683B623B6A002B0BD14FF0CE
:10311000A00383F31188BFF36F8FBFF34F8FFB6062
:1031200000BF00BFFDE73B6A9B6AFB613B6ADB694E
:103130003A6A126A9A603B6A1B6A3A6AD2695A60B2
:10314000FB695A683B6A18339A4203D13B6A1A6A90
:10315000FB695A603B6A00229A62FB691B685A1E2F
:10316000FB691A60494B1B68002B5ED13B6A5B69A7
:103170007B613B6A9B683A6AD2689A603B6ADB680B
:103180003A6A92685A607B695A683B6A04339A4289
:1031900003D13B6ADA687B695A603B6A00225A6154
:1031A0007B691B685A1E7B691A603B6ADB6A0122D5
:1031B0009A40374B1B681343354A13603B6ADA6AFF
:1031C000344913469B0013449B000B4404331B6893
:1031D0003B613B6A3A699A603B699A683B6ADA608C
:1031E0003B699B683A6A04325A603B6A1A1D3B6924
:1031F0009A603B6ADA6A13469B0013449B00254A97
:103200001A443B6A5A613B6ADA6A224913469B00B8
:1032100013449B000B441B68591C1E4813469B001B
:1032200013449B00034419601BE01B4B5B68BB61AC
:103230003B6ABA69DA61BB699A683B6A1A62BB6920
:103240009B683A6A18325A603B6A03F11802BB69FC
:103250009A603B6A104A9A620F4B1B6801330E4A10
:1032600013603B6ADA6A0D4B1B68DB6A9A4205D928
:1032700001237B620A4B01221A6001E000237B627A
:103280007B6A18462C37BD4680BC704784050020F9
:1032900064050020880400201C0500208404002010
:1032A0007005002080B489B000AF78603960594B58
:1032B0001B68002B0BD14FF0A00383F31188BFF3E1
:1032C0006F8FBFF34F8FFB6000BF00BFFDE73B6810
:1032D00043F000427B681A607B68DB68FB61FB6936
:1032E000002B0BD14FF0A00383F31188BFF36F8F36
:1032F000BFF34F8FBB6000BF00BFFDE77B681B695A
:10330000BB617B685B687A6892689A607B689B683F
:103310007A6852685A60BB695B687A689A4203D1DE
:103320007B689A68BB695A607B6800221A61BB6936
:103330001B685A1EBB691A60FB695B697B61FB698C
:103340009B68FA69D2689A60FB69DB68FA699268DF
:103350005A607B695A68FB6904339A4203D1FB695E
:10336000DA687B695A60FB6900225A617B691B68D5
:103370005A1E7B691A60FB69DB6A01229A40264B60
:103380001B681343244A1360FB69DA6A2349134616
:103390009B0013449B000B4404331B683B61FB6997
:1033A0003A699A603B699A68FB69DA603B699B6895
:1033B000FA6904325A60FB691A1D3B699A60FB691D
:1033C000DA6A13469B0013449B00144A1A44FB69B3
:1033D0005A61FB69DA6A114913469B0013449B004A
:1033E0000B441B68591C0D4813469B0013449B005B
:1033F00003441960FB69DA6A094B1B68DB6A9A426D
:1034000002D9084B01221A6000BF2437BD4680BC98
:10341000704700BF84050020640500208804002058
:10342000840400207005002080B584B000AF78606F
:103430007B68002B0BD14FF0A00383F31188BFF3FF
:103440006F8FBFF34F8FFB6000BF00BFFDE702F03F
:10345000FBFD074B1A687B681A60064B1A687B688D
:103460005A6002F021FE00BF1037BD4680BD00BF8C
:10347000740500206005002080B483B000AF786040
:10348000064B1A687B681A60054B1A687B685A609D
:1034900000BF0C37BD4680BC704700BF74050020DC
:1034A0006005002080B588B000AF786039607B6827
:1034B000002B0BD14FF0A00383F31188BFF36F8F64
:1034C000BFF34F8F3B6100BF00BFFDE73B68002BA0
:1034D0000BD14FF0A00383F31188BFF36F8FBFF3BD
:1034E0004F8FFB6000BF00BFFDE702F0ADFD1F4B3B
:1034F0001B68BB617B685B68BA69D31A7B613B68F8
:103500001B68B3F1FF3F02D10023FB6126E07B681B
:103510001A68174B1B689A420AD07B685B68BA69C5
:103520009A4205D30123FB613B6800221A6015E033
:103530003B681B687A699A420BD23B681A687B69C0
:10354000D21A3B681A607868FFF796FF0023FB6188
:1035500004E03B6800221A600123FB6102F0A4FD35
:10356000FB6918462037BD4680BD00BF60050020BE
:103570007405002080B400AF034B01221A6000BF25
:10358000BD4680BC704700BF7005002080B485B088
:1035900000AF78607B68002B05D07B68BB60BB68A0
:1035A0009B6CFB6001E00023FB60FB68184614374E
:1035B000BD4680BC704780B485B000AF786039608C
:1035C0007B68002B04D07B68FB60FB683A689A64D8
:1035D00000BF1437BD4680BC704780B582B000AFD5
:1035E000786000F051F8064B1B68012BF9D9054BA8
:1035F0004FF080521A60BFF34F8FBFF36F8FF0E729
:103600008804002004ED00E080B582B000AF002304
:103610007B600CE07A6813469B0013449B00124ABF
:103620001344184602F070FB7B6801337B607B68B3
:10363000042BEFD90D4802F067FB0D4802F064FB44
:103640000C4802F061FB0C4802F05EFB0B4802F0F4
:103650005BFB0B4B054A1A600A4B054A1A6000BF18
:103660000837BD4680BD00BF88040020EC04002060
:10367000000500201C050020300500204805002022
:10368000140500201805002080B582B000AF19E0B5
:1036900002F0DAFC104BDB68DB687B607B6804338C
:1036A000184602F0B7FB0D4B1B68013B0B4A136039
:1036B0000B4B1B68013B0A4A136002F0F5FC78686B
:1036C00000F0E3F8064B1B68002BE1D100BF00BF00
:1036D0000837BD4680BD00BF300500205C050020D6
:1036E0004405002080B586B000AFF860B9607A600C
:1036F000FB70FB68002B02D12C4B1B6800E0FB68C1
:103700007B61BB687A691A607B6903F13402BB682C
:103710005A607B69DA6ABB681A617B691A6BBB689D
:10372000DA617B695A6CBB689A607B69DA6CBB684A
:103730005A61BB6800229A61FB78052B1AD01B4B9B
:103740001B687A699A4203D1BB6800221A7318E099
:10375000BB68FA781A73FB78032B12D1FFF782F853
:103760007B699B6A002B02D0BB6802221A73FFF7A9
:1037700087F806E07869FEF77FFC03461A46BB68C7
:103780001A737B68002B09D07B691B6B184600F00D
:1037900061F803461A46BB681A8402E0BB6800223F
:1037A0001A8400BF1837BD4680BD00BF84040020C6
:1037B00080B58AB000AFF860B9601346FB71002392
:1037C0007B62BB681B68002B3FD0BB683B623B6AD7
:1037D0005B685A683B6A5A603B6A5A683B6A0833BE
:1037E0009A4204D13B6A5B685A683B6A5A603B6AFA
:1037F0005B68DB68FB61BB68BB61BB695B685A687F
:10380000BB695A60BB695A68BB6908339A4204D1E4
:10381000BB695B685A68BB695A60BB695B68DB68F7
:103820007B617A6A1346DB0013449B001A46FB68EF
:103830009918FB7901227869FFF754FF7B6A0133FD
:103840007B627A69FB699A42D5D17B6A1846283730
:10385000BD4680BD80B485B000AF78600023FB60BA
:1038600005E07B6801337B60FB680133FB607B68AC
:103870001B78A52BF5D0FB689B08FB60FB689BB20F
:1038800018461437BD4680BC704780B582B000AF83
:1038900078607B681B6B184602F090FD786802F038
:1038A0008DFD00BF0837BD4680BD80B400AF0A4B18
:1038B0001B681B68002B04D1084B4FF0FF321A60C5
:1038C00005E0054B1B68DB681B68044A136000BFFA
:1038D000BD4680BC704700BF140500207C05002059
:1038E00080B483B000AF044B1B687B607B681846D4
:1038F0000C37BD4680BC70478404002080B483B080
:1039000000AF0B4B1B68002B02D101237B6008E04A
:10391000084B1B68002B02D102237B6001E00023CF
:103920007B607B6818460C37BD4680BC704700BF83
:10393000680500208405002080B586B000AF78605F
:103940007B683B6100237B617B68002B00F08780F4
:103950003B69DA6A444B1B68DB6A9A4276D23B6960
:103960009B69002B06DB404B1B68DB6AC3F1050239
:103970003B699A613B6959693B69DA6A13469B0066
:1039800013449B00394A1344994257D13B6904338D
:10399000184602F03FFA0346002B0AD13B69DB6A66
:1039A000012202FA03F3DA43314B1B681340304A19
:1039B00013602D4B1B68DA6A3B69DA623B69DB6A8C
:1039C00001229A402A4B1B681343294A13603B6922
:1039D000DA6A264913469B0013449B000B440433C8
:1039E0001B68FB603B69FA689A60FB689A683B69F0
:1039F000DA60FB689B683A6904325A603B691A1DB9
:103A0000FB689A603B69DA6A13469B0013449B008B
:103A1000164A1A443B695A613B69DA6A13491346EC
:103A20009B0013449B000B441B68591C0F48134612
:103A30009B0013449B000344196004E00A4B1B687D
:103A4000DA6A3B69DA6201237B6108E03B69DA6C80
:103A5000054B1B68DB6A9A4201D201237B617B69BB
:103A600018461837BD4680BD840400208804002015
:103A70006405002080B588B000AF78607B68BB61CA
:103A80000023FB617B68002B00F08E80494B1B6894
:103A9000BA699A420BD04FF0A00383F31188BFF3A9
:103AA0006F8FBFF34F8F3B6100BF00BFFDE7BB6966
:103AB0001B6D002B0BD14FF0A00383F31188BFF3D4
:103AC0006F8FBFF34F8FFB6000BF00BFFDE7BB6987
:103AD0001B6D5A1EBB691A65BB69DA6ABB69DB6C70
:103AE0009A4261D0BB691B6D002B5DD1BB69043369
:103AF000184602F08FF90346002B0AD1BB69DB6A36
:103B0000012202FA03F3DA432B4B1B6813402A4AC3
:103B10001360BB69DA6CBB69DA62BB69DB6AC3F14B
:103B20000502BB699A61BB69DB6A01229A40224B9C
:103B30001B681343204A1360BB69DA6A1F491346A6
:103B40009B0013449B000B4404331B687B61BB69DF
:103B50007A699A607B699A68BB69DA607B699B685D
:103B6000BA6904325A60BB691A1D7B699A60BB69E5
:103B7000DA6A13469B0013449B00104A1A44BB693F
:103B80005A61BB69DA6A0D4913469B0013449B00D6
:103B90000B441B68591C094813469B0013449B00A7
:103BA000034419600123FB61FB6918462037BD46B9
:103BB00080BD00BF8404002064050020880400202C
:103BC00080B58AB000AF786039607B683B620123C2
:103BD000FB617B68002B00F0A3803B6A1B6D002B10
:103BE0000BD14FF0A00383F31188BFF36F8FBFF3A6
:103BF0004F8F3B6100BF00BFFDE73B6ADB6C3A685B
:103C00009A4202D93B687B6202E03B6ADB6C7B62D2
:103C10003B6ADB6A7A6A9A4200F082803B6A1B6DDB
:103C2000FA699A427CD1404B1B683A6A9A420BD19E
:103C30004FF0A00383F31188BFF36F8FBFF34F8F53
:103C4000FB6000BF00BFFDE73B6ADB6ABB613B6A0C
:103C50007A6ADA623B6A9B69002B04DB7B6AC3F1F8
:103C600005023B6A9A613B6A5969BA6913469B002F
:103C700013449B002D4A1344994251D13B6A0433AB
:103C8000184602F0C7F80346002B0AD13B6ADB6AEC
:103C9000012202FA03F3DA43254B1B681340244A3E
:103CA00013603B6ADB6A01229A40214B1B68134375
:103CB0001F4A13603B6ADA6A1C4913469B0013448F
:103CC0009B000B4404331B687B613B6A7A699A60F2
:103CD0007B699A683B6ADA607B699B683A6A04325E
:103CE0005A603B6A1A1D7B699A603B6ADA6A13461E
:103CF0009B0013449B000D4A1A443B6A5A613B6A7D
:103D0000DA6A0A4913469B0013449B000B441B6864
:103D1000591C064813469B0013449B00034419603A
:103D200000BF2837BD4680BD8404002088040020E1
:103D30006405002080B483B000AF094B1B689B6909
:103D40007B60074B1B68DA6A054B1B68C2F10502F2
:103D50009A617B6818460C37BD4680BC704700BF2F
:103D60008404002080B400AF074B1B68002B04D0F4
:103D7000054B1B681A6D01321A65034B1B68184608
:103D8000BD4680BC704700BF8404002080B586B06B
:103D900000AFF860B9607A60FB68002B0BD04FF081
:103DA000A00383F31188BFF36F8FBFF34F8F3B6185
:103DB00000BF00BFFDE702F047F9284B1A68FB6817
:103DC00014339B0013445B68002B15D1234B1A68F6
:103DD000FB681344583301221A707B68002B0BD008
:103DE0000121786800F0CCFC1D4B4FF080521A6026
:103DF000BFF34F8FBFF36F8F02F056F902F024F933
:103E0000164B1A68FB6814339B0013445B687B6194
:103E10007B69002B14D0BB68002B08D00F4B1A68AD
:103E2000FB6814339B00134400225A6008E00B4BDC
:103E300019687B695A1EFB6814339B000B445A6057
:103E4000064B1A68FB681344583300221A7002F0BC
:103E50002BF97B6918461837BD4680BD84040020C5
:103E600004ED00E080B586B000AFF860B9607A601C
:103E70003B60FB68002B0BD04FF0A00383F311884D
:103E8000BFF36F8FBFF34F8F3B6100BF00BFFDE7F4
:103E900002F0DAF8344B1A68FB68134458331B7885
:103EA000DBB2022B24D0304B1A68FB6814339B0022
:103EB00013445968BB68DB431940FB6814339B000B
:103EC00013445960284B1A68FB6813445833012285
:103ED0001A703B6A002B0BD00121386A00F050FCAD
:103EE000224B4FF080521A60BFF34F8FBFF36F8F9A
:103EF00002F0DAF802F0A8F83B68002B08D01A4B61
:103F00001A68FB6814339B0013445A683B681A60B4
:103F1000154B1A68FB68134458331B78DBB2022B2D
:103F200002D000237B6110E00F4B1A68FB6814334A
:103F30009B00134459687B68DB431940FB681433CA
:103F40009B001344596001237B61074B1A68FB688F
:103F50001344583300221A7002F0A6F87B69184601
:103F60001837BD4680BD00BF8404002004ED00E08A
:103F700080B58EB000AFF860B9607A60FB70012345
:103F80007B63BB68002B0BD04FF0A00383F3118839
:103F9000BFF36F8FBFF34F8F3B6200BF00BFFDE7E2
:103FA000FB68002B0BD14FF0A00383F31188BFF304
:103FB0006F8FBFF34F8FFB6100BF00BFFDE7FB6852
:103FC0003B6302F041F83B6C002B07D03A6BBB68B7
:103FD00014339B0013445A683B6C1A603A6BBB68FD
:103FE000134458331B7887F82F303A6BBB6813445F
:103FF000583302221A70FB78042B41D801A252F8E0
:1040000023F000BFA1400008194000083740000815
:1040100053400008634000083A6BBB6814339B00B0
:1040200013445A687B681A43396BBB6814339B008E
:104030000B445A6037E03A6BBB6814339B0013445F
:104040005B685A1C396BBB6814339B000B445A6085
:1040500029E03A6BBB6814339B0013447A685A60BA
:1040600021E097F82F30022B07D03A6BBB6814334E
:104070009B0013447A685A6015E000237B6312E0CA
:104080004D4B1B68002B0DD04FF0A00383F311881C
:10409000BFF36F8FBFF34F8FBB6100BF00BFFDE762
:1040A00000BF00E000BF97F82F30012B7CD13B6BA5
:1040B0005B69BB623B6B9B683A6BD2689A603B6BF7
:1040C000DB683A6B92685A60BB6A5A683B6B043390
:1040D0009A4203D13B6BDA68BB6A5A603B6B0022A1
:1040E0005A61BB6A1B685A1EBB6A1A603B6BDB6A6B
:1040F00001229A40314B1B681343304A13603B6BDB
:10410000DA6A2F4913469B0013449B000B44043387
:104110001B687B623B6B7A6A9A607B6A9A683B6B2E
:10412000DA607B6A9B683A6B04325A603B6B1A1DFB
:104130007B6A9A603B6BDA6A13469B0013449B00D0
:104140001F4A1A443B6B5A613B6BDA6A1C4913469F
:104150009B0013449B000B441B68591C18481346D2
:104160009B0013449B00034419603B6B9B6A002B2C
:104170000BD04FF0A00383F31188BFF36F8FBFF311
:104180004F8F7B6100BF00BFFDE73B6BDA6A0D4BD1
:104190001B68DB6A9A4207D90B4B4FF080521A60BA
:1041A000BFF34F8FBFF36F8F01F07EFF7B6B18461D
:1041B0003837BD4680BD00BF600500206405002083
:1041C000880400208404002004ED00E080B592B053
:1041D00000AFF860B9607A60FB7001237B64FB6814
:1041E000002B0BD14FF0A00383F31188BFF36F8F27
:1041F000BFF34F8FBB6200BF00BFFDE7BB68002B62
:104200000BD04FF0A00383F31188BFF36F8FBFF380
:104210004F8F7B6200BF00BFFDE701F0D1FFFB685D
:104220003B64EFF311824FF0A00383F31188BFF3D7
:104230006F8FBFF34F8F3A62FB613B6AFB633B6D4D
:10424000002B07D03A6CBB6814339B0013445A68A8
:104250003B6D1A603A6CBB68134458331B7887F87F
:104260003B303A6CBB681344583302221A70FB7817
:10427000042B41D801A252F823F000BF19430008D3
:1042800091420008AF420008CB420008DB42000820
:104290003A6CBB6814339B0013445A687B681A431A
:1042A000396CBB6814339B000B445A6037E03A6C9E
:1042B000BB6814339B0013445B685A1C396CBB68A1
:1042C00014339B000B445A6029E03A6CBB681433EA
:1042D0009B0013447A685A6021E097F83B30022B28
:1042E00007D03A6CBB6814339B0013447A685A6059
:1042F00015E000237B6412E0604B1B68002B0DD09F
:104300004FF0A00383F31188BFF36F8FBFF34F8F7C
:10431000BB6100BF00BFFDE700BF00E000BF97F832
:104320003B30012B40F09F803B6C9B6A002B0BD0F5
:104330004FF0A00383F31188BFF36F8FBFF34F8F4C
:104340007B6100BF00BFFDE74D4B1B68002B5ED1BA
:104350003B6C5B693B633B6C9B683A6CD2689A60D0
:104360003B6CDB683A6C92685A603B6B5A683B6CFA
:1043700004339A4203D13B6CDA683B6B5A603B6C66
:1043800000225A613B6B1B685A1E3B6B1A603B6CE8
:10439000DB6A01229A403B4B1B681343394A136086
:1043A0003B6CDA6A384913469B0013449B000B446C
:1043B00004331B68FB623B6CFA6A9A60FB6A9A687A
:1043C0003B6CDA60FB6A9B683A6C04325A603B6C67
:1043D0001A1DFB6A9A603B6CDA6A13469B00134411
:1043E0009B00294A1A443B6C5A613B6CDA6A2649A5
:1043F00013469B0013449B000B441B68591C224826
:1044000013469B0013449B00034419601BE01F4BA1
:104410005B687B633B6C7A6BDA617B6B9A683B6CA5
:104420001A627B6B9B683A6C18325A603B6C03F1E2
:1044300018027B6B9A603B6C144A9A62134B1B68A0
:104440000133124A13603B6CDA6A114B1B68DB6A5A
:104450009A4208D97B6D002B02D07B6D01221A6035
:104460000C4B01221A60FB6B3B613B6983F31188A3
:1044700000BF7B6C18464837BD4680BD60050020F4
:104480008405002064050020880400201C0500200D
:10449000840400207005002080B590B000AFF86063
:1044A000B9607A60FB68002B0BD14FF0A00383F357
:1044B0001188BFF36F8FBFF34F8F7B6200BF00BFC8
:1044C000FDE7BB68002B0BD04FF0A00383F31188EE
:1044D000BFF36F8FBFF34F8F3B6200BF00BFFDE79D
:1044E00001F06EFEFB68FB63EFF311824FF0A00357
:1044F00083F31188BFF36F8FBFF34F8FFA61BB61F6
:10450000FB69BB63FA6BBB68134458331B7887F8AD
:104510003730FA6BBB681344583302221A70FA6BB7
:10452000BB6814339B0013445B685A1CF96BBB686F
:1045300014339B000B445A6097F83730012B40F03E
:104540009F80FB6B9B6A002B0BD04FF0A00383F383
:104550001188BFF36F8FBFF34F8F7B6100BF00BF28
:10456000FDE74C4B1B68002B5ED1FB6B5B69FB626C
:10457000FB6B9B68FA6BD2689A60FB6BDB68FA6B2B
:1045800092685A60FB6A5A68FB6B04339A4203D103
:10459000FB6BDA68FB6A5A60FB6B00225A61FB6AAC
:1045A0001B685A1EFB6A1A60FB6BDB6A01229A4089
:1045B000394B1B681343384A1360FB6BDA6A37497F
:1045C00013469B0013449B000B4404331B68BB62DF
:1045D000FB6BBA6A9A60BB6A9A68FB6BDA60BB6A6B
:1045E0009B68FA6B04325A60FB6B1A1DBB6A9A60B7
:1045F000FB6BDA6A13469B0013449B00274A1A445C
:10460000FB6B5A61FB6BDA6A244913469B00134427
:104610009B000B441B68591C204813469B00134405
:104620009B00034419601BE01D4B5B683B63FB6B05
:104630003A6BDA613B6B9A68FB6B1A623B6B9B6867
:10464000FA6B18325A60FB6B03F118023B6B9A60ED
:10465000FB6B134A9A62124B1B680133104A1360BA
:10466000FB6BDA6A0F4B1B68DB6A9A4208D97B68DE
:10467000002B02D07B6801221A600B4B01221A60CA
:10468000BB6B3B613B6983F3118800BF00BF4037C0
:10469000BD4680BD840500206405002088040020FC
:1046A0001C050020840400207005002080B586B021
:1046B00000AF786039603B68002B0BD04FF0A0034F
:1046C00083F31188BFF36F8FBFF34F8FFB6000BF81
:1046D00000BFFDE77B68002B02D1104B1B6800E098
:1046E0007B683B6101F0B0FC3A693B681344583386
:1046F0001B78DBB2022B08D13A693B68134458336C
:1047000000221A7001237B6101E000237B6101F02C
:10471000CBFC7B6918461837BD4680BD8404002059
:1047200080B586B000AFF860B9607A60FB68002B96
:1047300002D1124B1B6800E0FB687B6101F084FC36
:104740007A69BB6814339B0013445B683B617A69E8
:10475000BB6814339B0013445A687B68DB431A40E0
:104760007969BB6814339B000B445A6001F09CFCD0
:104770003B6918461837BD4680BD00BF8404002041
:1047800080B586B000AF78603960364B1B687B61BE
:10479000354B1B680433184601F03CFB0346002BE5
:1047A0000BD1314B1B68DB6A012202FA03F3DA43B7
:1047B0002E4B1B6813402D4A13607B68B3F1FF3FFB
:1047C00024D13B68002B21D0294B5B683B61264BF1
:1047D0001B683A699A60244B1B683A699268DA60F0
:1047E000214B1A683B699B6804325A601E4B1B6858
:1047F0001A1D3B699A601C4B1B681D4A5A611C4B71
:104800001B6801331A4A136000BF26E07A697B688F
:104810001344FB60144B1B68FA685A60FA687B69A2
:104820009A4209D2134B1A680F4B1B68043319467E
:10483000104601F0B7FA10E00F4B1A680A4B1B68DC
:1048400004331946104601F0ADFA0C4B1B68FA68A8
:104850009A4202D2094AFB68136000BF1837BD466E
:1048600080BD00BF60050020840400206405002096
:104870004805002018050020140500207C050020B4
:1048800080B586B000AF7860396001237B617B68BA
:104890003B613B69002B0BD14FF0A00383F31188E0
:1048A000BFF36F8FBFF34F8FFB6000BF00BFFDE70B
:1048B0003B69002B5DD03B69DB6B002B59D03B691A
:1048C0001A6C3B69DB6B0021A3FB0223002B00D099
:1048D00001210B46002B4CD101F0B6FB3B691A6855
:1048E0003B69DB6B3969096C01FB03F31A443B69D3
:1048F0009A603B6900229A633B691A683B695A6077
:104900003B691A683B69DB6B013B3969096C01FB48
:1049100003F31A443B69DA603B69FF2283F84420C1
:104920003B69FF2283F845203B68002B14D13B698B
:104930001B69002B1AD03B6910331846FEF7DCFBCD
:104940000346002B12D0164B4FF080521A60BFF373
:104950004F8FBFF36F8F09E03B691033184601F0AA
:10496000D3F93B692433184601F0CEF901F09CFBE2
:1049700001E000237B617B69002B0BD14FF0A0038A
:1049800083F31188BFF36F8FBFF34F8FBB6000BFFE
:1049900000BFFDE77B6918461837BD4680BD00BFE4
:1049A00004ED00E080B58AB002AFF860B96013464C
:1049B000FB710023FB61FB68002B2ED00021BA683D
:1049C000FB68A3FB0223002B00D001210B46002B28
:1049D00023D1FB68BA6802FB03F313F1510F1CD813
:1049E000FB68BA6802FB03F3BB61BB69503318462E
:1049F00001F028FCF861FB69002B1DD0FB697B618D
:104A00007B6950337B61FA79FB69009313467A69BD
:104A1000B968F86800F015F80EE0FB69002B0BD1BF
:104A20004FF0A00383F31188BFF36F8FBFF34F8F55
:104A30003B6100BF00BFFDE7FB6918462037BD465C
:104A400080BD80B584B000AFF860B9607A60FB705B
:104A5000BB68002B03D1BB69BA691A6002E0BB696D
:104A60007A681A60BB69FA68DA63BB69BA681A6463
:104A70000121B869FFF704FFBB69FA7883F84C207D
:104A800000BF1037BD4680BD80B582B000AF7860F2
:104A90007B68002B0ED07B6800229A607B68002226
:104AA0001A607B680022DA60002300220021786807
:104AB00000F0B7F800BF0837BD4680BD80B586B0AE
:104AC00000AF0346FB7101237B6100233B61FB794F
:104AD0001A4639697869FFF765FFF860F868FFF7EB
:104AE000D3FFFB6818461837BD4680BD90B587B028
:104AF00000AF78607B683B613B69002B0BD14FF0C6
:104B0000A00383F31188BFF36F8FBFF34F8FFB6058
:104B100000BF00BFFDE73B699C68FEF7E1FE03466E
:104B20009C4211D13B69DB685A1E3B69DA603B69E4
:104B3000DB68002B05D1002300220021386900F03A
:104B400070F801237B6101E000237B617B691846DB
:104B50001C37BD4690BD90B587B000AF7860396016
:104B60007B683B613B69002B0BD14FF0A00383F3C3
:104B70001188BFF36F8FBFF34F8FFB6000BF00BF83
:104B8000FDE73B699C68FEF7ABFE03469C4207D1FC
:104B90003B69DB685A1C3B69DA6001237B610CE0EE
:104BA0003968386900F080FB78617B69002B04D09C
:104BB0003B69DB685A1C3B69DA607B6918461C3725
:104BC000BD4690BD80B584B000AF786039600023E9
:104BD000FB607B68002B10D03A687B689A420CD847
:104BE000022200217868FFF7DDFEF860FB68002BE9
:104BF00012D0FB683A689A630EE0FB68002B0BD179
:104C00004FF0A00383F31188BFF36F8FBFF34F8F73
:104C1000BB6000BF00BFFDE7FB6818461037BD460C
:104C200080BD80B58EB000AFF860B9607A603B603F
:104C300000237B63FB683B633B6B002B0BD14FF086
:104C4000A00383F31188BFF36F8FBFF34F8FBB6255
:104C500000BF00BFFDE7BB68002B03D13B6B1B6CA3
:104C6000002B01D1012300E00023002B0BD14FF0DA
:104C7000A00383F31188BFF36F8FBFF34F8F7B6265
:104C800000BF00BFFDE73B68022B03D13B6BDB6B32
:104C9000012B01D1012300E00023002B0BD14FF0A9
:104CA000A00383F31188BFF36F8FBFF34F8F3B6275
:104CB00000BF00BFFDE7FEF721FE0346002B02D137
:104CC0007B68002B01D1012300E00023002B0BD1D6
:104CD0004FF0A00383F31188BFF36F8FBFF34F8FA3
:104CE000FB6100BF00BFFDE701F0AEF93B6B9A6BC3
:104CF0003B6BDB6B9A4202D33B68022B29D13A68AB
:104D0000B968386B00F072FEF8623B6B5B6A002B8F
:104D100010D03B6B24331846FEF7EEF90346002B08
:104D200013D0404B4FF080521A60BFF34F8FBFF348
:104D30006F8F0AE0FB6A002B07D03A4B4FF080528E
:104D40001A60BFF34F8FBFF36F8F01F0ADF90123EE
:104D500063E07B68002B03D101F0A6F900235CE03F
:104D60007B6B002B06D107F114031846FEF784FB7A
:104D700001237B6301F098F9FDF774FD01F064F9FC
:104D80003B6B93F844305BB2B3F1FF3F03D13B6B15
:104D9000002283F844203B6B93F845305BB2B3F1BB
:104DA000FF3F03D13B6B002283F8452001F07CF9E3
:104DB0003A1D07F1140311461846FEF773FB03462C
:104DC000002B24D1386B00F02DFF0346002B18D0A8
:104DD0003B6B10337A6811461846FEF7C9F8386BFA
:104DE00000F094FEFDF74CFD0346002B7FF47CAFF2
:104DF0000C4B4FF080521A60BFF34F8FBFF36F8F91
:104E000072E7386B00F082FEFDF73AFD6CE7386B15
:104E100000F07CFEFDF734FD002318463837BD4610
:104E200080BD00BF04ED00E080B592B000AFF86037
:104E3000B9607A603B60FB683B643B6C002B0BD134
:104E40004FF0A00383F31188BFF36F8FBFF34F8F31
:104E5000FB6200BF00BFFDE7BB68002B03D13B6CCA
:104E60001B6C002B01D1012300E00023002B0BD190
:104E70004FF0A00383F31188BFF36F8FBFF34F8F01
:104E8000BB6200BF00BFFDE73B68022B03D13B6C58
:104E9000DB6B012B01D1012300E00023002B0BD1A0
:104EA0004FF0A00383F31188BFF36F8FBFF34F8FD1
:104EB0007B6200BF00BFFDE701F082F9EFF31182D2
:104EC0004FF0A00383F31188BFF36F8FBFF34F8FB1
:104ED0003A62FB613B6AFB633B6C9A6B3B6CDB6B3E
:104EE0009A4202D33B68022B47D13B6C93F8453082
:104EF00087F83B303B6C9B6B7B633A68B968386CD6
:104F000000F074FD97F93B30B3F1FF3F12D13B6CD9
:104F10005B6A002B2ED03B6C24331846FEF7ECF86E
:104F20000346002B26D07B68002B23D07B68012210
:104F30001A601FE0FDF7C0FD386397F93B303A6B0C
:104F40009A4217D997F93B307F2B0BD14FF0A00332
:104F500083F31188BFF36F8FBFF34F8FBB6100BF27
:104F600000BFFDE797F83B300133DBB25AB23B6C30
:104F700083F8452001237B6401E000237B64FB6B05
:104F80007B617B6983F3118800BF7B6C18464837CF
:104F9000BD4680BD80B590B000AF786039607B6859
:104FA000BB63BB6B002B0BD14FF0A00383F31188C5
:104FB000BFF36F8FBFF34F8F7B6200BF00BFFDE772
:104FC000BB6B1B6C002B0BD04FF0A00383F311883D
:104FD000BFF36F8FBFF34F8F3B6200BF00BFFDE792
:104FE000BB6B1B68002B03D1BB6B9B68002B01D1F3
:104FF000012300E00023002B0BD14FF0A00383F32B
:105000001188BFF36F8FBFF34F8FFB6100BF00BFED
:10501000FDE701F0D5F8EFF311824FF0A00383F321
:105020001188BFF36F8FBFF34F8FBA617B61BB698C
:105030007B63BB6B9B6B3B63BB6BDB6B3A6B9A42DB
:1050400043D2BB6B93F8453087F82F303B6B5A1C2B
:10505000BB6B9A6397F92F30B3F1FF3F12D1BB6B53
:105060005B6A002B2ED0BB6B24331846FEF744F846
:105070000346002B26D03B68002B23D03B6801223F
:105080001A601FE0FDF718FDB86297F92F30BA6A71
:105090009A4217D997F92F307F2B0BD14FF0A003ED
:1050A00083F31188BFF36F8FBFF34F8F3B6100BF56
:1050B00000BFFDE797F82F300133DBB25AB2BB6B6C
:1050C00083F845200123FB6301E00023FB637B6B36
:1050D000FB60FB6883F3118800BFFB6B1846403709
:1050E000BD4680BD80B58CB000AFF860B9607A6015
:1050F0000023FB62FB68BB62BB6A002B0BD14FF045
:10510000A00383F31188BFF36F8FBFF34F8F3B6210
:1051100000BF00BFFDE7BB68002B03D1BB6A1B6C5F
:10512000002B01D1012300E00023002B0BD14FF015
:10513000A00383F31188BFF36F8FBFF34F8FFB6121
:1051400000BF00BFFDE7FEF7D9FB0346002B02D1ED
:105150007B68002B01D1012300E00023002B0BD141
:105160004FF0A00383F31188BFF36F8FBFF34F8F0E
:10517000BB6100BF00BFFDE700F066FFBB6A9B6B31
:105180007B627B6A002B1FD0B968B86A00F098FC7C
:105190007B6A5A1EBB6A9A63BB6A1B69002B0FD0DD
:1051A000BB6A10331846FDF7A7FF0346002B07D054
:1051B0003C4B4FF080521A60BFF34F8FBFF36F8F9D
:1051C00000F072FF012369E07B68002B03D100F03F
:1051D0006BFF002362E0FB6A002B06D107F110038E
:1051E0001846FEF749F90123FB6200F05DFFFDF769
:1051F00039FB00F029FFBB6A93F844305BB2B3F18E
:10520000FF3F03D1BB6A002283F84420BB6A93F8B6
:1052100045305BB2B3F1FF3F03D1BB6A002283F894
:10522000452000F041FF3A1D07F1100311461846D2
:10523000FEF738F90346002B23D1B86A00F0B8FC1A
:105240000346002B17D0BB6A24337A6811461846F0
:10525000FDF78EFEB86A00F059FCFDF711FB03461E
:10526000002B89D10F4B4FF080521A60BFF34F8F44
:10527000BFF36F8F80E7B86A00F048FCFDF700FBD2
:105280007AE7B86A00F042FCFDF7FAFAB86A00F073
:105290008FFC0346002B3FF46FAF002318463037D6
:1052A000BD4680BD04ED00E080B58CB000AF7860F5
:1052B00039600023FB627B687B620023BB627B6AF0
:1052C000002B0BD14FF0A00383F31188BFF36F8F36
:1052D000BFF34F8FBB6100BF00BFFDE77B6A1B6C54
:1052E000002B0BD04FF0A00383F31188BFF36F8F17
:1052F000BFF34F8F7B6100BF00BFFDE7FEF7FEFAF3
:105300000346002B02D13B68002B01D1012300E0B2
:105310000023002B0BD14FF0A00383F31188BFF3C0
:105320006F8FBFF34F8F3B6100BF00BFFDE700F001
:105330008BFE7B6A9B6B3B623B6A002B24D03B6AF3
:105340005A1E7B6A9A637B6A1B68002B04D1FEF7A6
:1053500009FD02467B6A9A607B6A1B69002B0FD0AD
:105360007B6A10331846FDF7C7FE0346002B07D0B3
:105370004C4B4FF080521A60BFF34F8FBFF36F8FCB
:1053800000F092FE012389E03B68002B03D100F07E
:105390008BFE002382E0FB6A002B06D107F1080395
:1053A0001846FEF769F80123FB6200F07DFEFDF769
:1053B00059FA00F049FE7B6A93F844305BB2B3F1CE
:1053C000FF3F03D17B6A002283F844207B6A93F875
:1053D00045305BB2B3F1FF3F03D17B6A002283F813
:1053E000452000F061FE3A4607F1080311461846D1
:1053F000FEF758F80346002B32D1786A00F0D8FB4C
:105400000346002B26D07B6A1B68002B09D100F0D5
:105410001BFE7B6A9B681846FEF78EFAB86200F0A6
:1054200043FE7B6A24333A6811461846FDF7A0FD17
:10543000786A00F06BFBFDF723FA0346002B7FF43C
:1054400076AF184B4FF080521A60BFF34F8FBFF307
:105450006F8F6CE7786A00F059FBFDF711FA66E789
:10546000786A00F053FBFDF70BFA786A00F0A0FBB6
:105470000346002B3FF45BAFBB6A002B0DD000F05E
:10548000E3FD786A00F09BFAF8617B6A9B68F96932
:105490001846FEF795FB00F007FE0023184630374C
:1054A000BD4680BD04ED00E080B58EB000AFF86071
:1054B000B9607A6000237B63FB683B633B6B002B26
:1054C0000BD14FF0A00383F31188BFF36F8FBFF3AD
:1054D0004F8F7B6200BF00BFFDE7BB68002B03D18D
:1054E0003B6B1B6C002B01D1012300E00023002B40
:1054F0000BD14FF0A00383F31188BFF36F8FBFF37D
:105500004F8F3B6200BF00BFFDE7FEF7F7F9034690
:10551000002B02D17B68002B01D1012300E0002386
:10552000002B0BD14FF0A00383F31188BFF36F8FD3
:10553000BFF34F8FFB6100BF00BFFDE700F084FDAC
:105540003B6B9B6BFB62FB6A002B21D03B6BDB68E8
:10555000BB62B968386B00F0B3FA3B6BBA6ADA60C9
:105560003B6B5B6A002B0FD03B6B24331846FDF777
:10557000C3FD0346002B07D03C4B4FF080521A600E
:10558000BFF34F8FBFF36F8F00F08EFD012369E0F3
:105590007B68002B03D100F087FD002362E07B6B6A
:1055A000002B06D107F114031846FDF765FF012310
:1055B0007B6300F079FDFDF755F900F045FD3B6B8D
:1055C00093F844305BB2B3F1FF3F03D13B6B002251
:1055D00083F844203B6B93F845305BB2B3F1FF3F57
:1055E00003D13B6B002283F8452000F05DFD3A1D9E
:1055F00007F1140311461846FDF754FF0346002B2C
:1056000023D1386B00F0D4FA0346002B17D03B6B44
:1056100024337A6811461846FDF7AAFC386B00F06F
:1056200075FAFDF72DF90346002B87D10F4B4FF08C
:1056300080521A60BFF34F8FBFF36F8F7EE7386BD6
:1056400000F064FAFDF71CF978E7386B00F05EFAB9
:10565000FDF716F9386B00F0ABFA0346002B3FF468
:105660006DAF002318463837BD4680BD04ED00E01D
:1056700080B590B000AFF860B9607A60FB68BB633A
:10568000BB6B002B0BD14FF0A00383F31188BFF34A
:105690006F8FBFF34F8F7B6200BF00BFFDE7BB681A
:1056A000002B03D1BB6B1B6C002B01D1012300E04D
:1056B0000023002B0BD14FF0A00383F31188BFF31D
:1056C0006F8FBFF34F8F3B6200BF00BFFDE700F05D
:1056D00077FDEFF311824FF0A00383F31188BFF33E
:1056E0006F8FBFF34F8FFA61BB61FB697B63BB6B4D
:1056F0009B6B3B633B6B002B47D0BB6B93F84430F9
:1057000087F82F30B968B86B00F0DAF93B6B5A1E96
:10571000BB6B9A6397F92F30B3F1FF3F12D1BB6B8C
:105720001B69002B2ED0BB6B10331846FDF7E4FC31
:105730000346002B26D07B68002B23D07B680122F8
:105740001A601FE0FDF7B8F9B86297F92F30BA6A0E
:105750009A4217D997F92F307F2B0BD14FF0A00326
:1057600083F31188BFF36F8FBFF34F8F7B6100BF4F
:1057700000BFFDE797F82F300133DBB25AB2BB6BA5
:1057800083F844200123FB6301E00023FB637B6B70
:105790003B613B6983F3118800BFFB6B18464037C0
:1057A000BD4680BD80B58CB000AF786039607B6845
:1057B000BB62BB6A002B0BD14FF0A00383F31188AF
:1057C000BFF36F8FBFF34F8FFB6100BF00BFFDE7DB
:1057D0003B68002B03D1BB6A1B6C002B01D101235A
:1057E00000E00023002B0BD14FF0A00383F31188BE
:1057F000BFF36F8FBFF34F8FBB6100BF00BFFDE7EB
:10580000BB6A1B6C002B0BD14FF0A00383F31188F4
:10581000BFF36F8FBFF34F8F7B6100BF00BFFDE70A
:1058200000F0CEFCEFF311824FF0A00383F3118858
:10583000BFF36F8FBFF34F8F3A61FB603B697B62B1
:10584000BB6A9B6B002B0CD0BB6ADB683B62396880
:10585000B86A00F035F9BB6A3A6ADA600123FB6284
:1058600001E00023FB627B6ABB60BB6883F31188A5
:1058700000BFFB6A18463037BD4680BD80B584B096
:1058800000AF78607B68002B0BD14FF0A00383F34F
:105890001188BFF36F8FBFF34F8FBB6000BF00BF96
:1058A000FDE700F0D1FB7B689B6BFB6000F0FCFB2D
:1058B000FB6818461037BD4680BD80B586B000AF86
:1058C00078607B687B617B69002B0BD14FF0A00374
:1058D00083F31188BFF36F8FBFF34F8FFB6000BF5F
:1058E00000BFFDE700F0B0FB7B69DA6B7B699B6B67
:1058F000D31A3B6100F0D8FB3B6918461837BD4608
:1059000080BD80B487B000AF78607B687B617B69C5
:10591000002B0BD14FF0A00383F31188BFF36F8FDF
:10592000BFF34F8FFB6000BF00BFFDE77B699B6B40
:105930003B613B6918461C37BD4680BC704780B54B
:1059400084B000AF78607B68FB60FB68002B0BD1F4
:105950004FF0A00383F31188BFF36F8FBFF34F8F16
:10596000BB6000BF00BFFDE7F86800F027FD00BF87
:105970001037BD4680BD80B483B000AF78607B68CF
:105980009B6C18460C37BD4680BC704780B483B012
:1059900000AF786039607B683A689A6400BF0C3762
:1059A000BD4680BC704780B483B000AF78607B6830
:1059B00093F84C3018460C37BD4680BC704780B415
:1059C00085B000AF78607B685B6A002B06D07B688F
:1059D0001B6B1B68C3F10503FB6001E00023FB6048
:1059E000FB6818461437BD4680BC704780B586B04A
:1059F00000AFF860B9607A6000237B61FB689B6B45
:105A00003B61FB681B6C002B0DD1FB681B68002BF6
:105A10004DD1FB689B681846FEF72CF87861FB684F
:105A200000229A6043E07B68002B19D1FB6858681C
:105A3000FB681B6C1A46B96801F02EFCFB685A68BB
:105A4000FB681B6C1A44FB685A60FB685A68FB6869
:105A50009B689A422BD3FB681A68FB685A6026E061
:105A6000FB68D868FB681B6C1A46B96801F014FC27
:105A7000FB68DA68FB681B6C5B421A44FB68DA60FF
:105A8000FB68DA68FB681B689A4207D2FB689A6871
:105A9000FB681B6C5B421A44FB68DA607B68022B74
:105AA00005D13B69002B02D03B69013B3B613B695F
:105AB0005A1CFB689A637B6918461837BD4680BD3F
:105AC00080B582B000AF786039607B681B6C002BBA
:105AD00018D07B68DA687B681B6C1A447B68DA60D4
